{
  "_format": "hh-sol-artifact-1",
  "contractName": "collateralValue",
  "sourceName": "contracts/collateralValues.sol",
  "abi": [
    {
      "inputs": [],
      "name": "COLLATERAL",
      "outputs": [
        {
          "internalType": "bytes32",
          "name": "",
          "type": "bytes32"
        }
      ],
      "stateMutability": "view",
      "type": "function"
    },
    {
      "inputs": [
        {
          "internalType": "bytes32",
          "name": "sourceCurrencyKey",
          "type": "bytes32"
        },
        {
          "internalType": "uint256",
          "name": "amountToLiquidate",
          "type": "uint256"
        },
        {
          "internalType": "bytes32",
          "name": "destinationCurrencyKey",
          "type": "bytes32"
        }
      ],
      "name": "getCollateralAmountSUSD",
      "outputs": [
        {
          "internalType": "uint256",
          "name": "",
          "type": "uint256"
        }
      ],
      "stateMutability": "view",
      "type": "function"
    },
    {
      "inputs": [],
      "name": "liquidationPenalty",
      "outputs": [
        {
          "internalType": "uint256",
          "name": "",
          "type": "uint256"
        }
      ],
      "stateMutability": "view",
      "type": "function"
    }
  ],
  "bytecode": "0x608060405273d69b189020ef614796578afe4d10378c5e7e11386000806101000a81548173ffffffffffffffffffffffffffffffffffffffff021916908373ffffffffffffffffffffffffffffffffffffffff1602179055506012600155600154600a0a600255600a6002548161007257fe5b0460035534801561008257600080fd5b5061056a806100926000396000f3fe608060405234801561001057600080fd5b50600436106100415760003560e01c806323f5589a1461004657806324bbab8b146100645780638f45521114610082575b600080fd5b61004e6100b2565b60405161005b91906104c6565b60405180910390f35b61006c6100b8565b6040516100799190610434565b60405180910390f35b61009c600480360381019061009791906102f8565b6100dc565b6040516100a991906104c6565b60405180910390f35b60035481565b7f455448000000000000000000000000000000000000000000000000000000000081565b60008060008054906101000a900473ffffffffffffffffffffffffffffffffffffffff1673ffffffffffffffffffffffffffffffffffffffff1663654a60ac8686866040518463ffffffff1660e01b815260040161013c9392919061044f565b60206040518083038186803b15801561015457600080fd5b505afa158015610168573d6000803e3d6000fd5b505050506040513d601f19601f8201168201806040525081019061018c9190610347565b905060006101b96101aa6003546002546101c790919063ffffffff16565b8361021c90919063ffffffff16565b905080925050509392505050565b600080828401905083811015610212576040517f08c379a000000000000000000000000000000000000000000000000000000000815260040161020990610486565b60405180910390fd5b8091505092915050565b6000601260ff16600a0a610239838561024990919063ffffffff16565b8161024057fe5b04905092915050565b60008083141561025c57600090506102b3565b600082840290508284828161026d57fe5b04146102ae576040517f08c379a00000000000000000000000000000000000000000000000000000000081526004016102a5906104a6565b60405180910390fd5b809150505b92915050565b6000813590506102c881610506565b92915050565b6000813590506102dd8161051d565b92915050565b6000815190506102f28161051d565b92915050565b60008060006060848603121561030d57600080fd5b600061031b868287016102b9565b935050602061032c868287016102ce565b925050604061033d868287016102b9565b9150509250925092565b60006020828403121561035957600080fd5b6000610367848285016102e3565b91505092915050565b610379816104f2565b82525050565b600061038c601b836104e1565b91507f536166654d6174683a206164646974696f6e206f766572666c6f7700000000006000830152602082019050919050565b60006103cc6021836104e1565b91507f536166654d6174683a206d756c7469706c69636174696f6e206f766572666c6f60008301527f77000000000000000000000000000000000000000000000000000000000000006020830152604082019050919050565b61042e816104fc565b82525050565b60006020820190506104496000830184610370565b92915050565b60006060820190506104646000830186610370565b6104716020830185610425565b61047e6040830184610370565b949350505050565b6000602082019050818103600083015261049f8161037f565b9050919050565b600060208201905081810360008301526104bf816103bf565b9050919050565b60006020820190506104db6000830184610425565b92915050565b600082825260208201905092915050565b6000819050919050565b6000819050919050565b61050f816104f2565b811461051a57600080fd5b50565b610526816104fc565b811461053157600080fd5b5056fea26469706673582212206b4c013007d3e8b4e110d4d84278c030a58b968f291f0d82dae1ecc42fce31f964736f6c634300060c0033",
  "linkReferences": {},
  "deployedLinkReferences": {}
}