{
    "_format": "hh-sol-artifact-1",
    "contractName": "dYdXLiquidator",
    "sourceName": "contracts/dYdXLiquidator.sol",
    "abi": [
        {
            "inputs": [
                {
                    "internalType": "address",
                    "name": "_executor",
                    "type": "address"
                }
            ],
            "stateMutability": "payable",
            "type": "constructor"
        },
        {
            "inputs": [
                {
                    "internalType": "address payable",
                    "name": "_to",
                    "type": "address"
                },
                {
                    "internalType": "uint256",
                    "name": "_value",
                    "type": "uint256"
                },
                {
                    "internalType": "bytes",
                    "name": "_data",
                    "type": "bytes"
                }
            ],
            "name": "call",
            "outputs": [
                {
                    "internalType": "bytes",
                    "name": "",
                    "type": "bytes"
                }
            ],
            "stateMutability": "payable",
            "type": "function"
        },
        {
            "inputs": [
                {
                    "internalType": "address",
                    "name": "sender",
                    "type": "address"
                },
                {
                    "components": [
                        {
                            "internalType": "address",
                            "name": "owner",
                            "type": "address"
                        },
                        {
                            "internalType": "uint256",
                            "name": "number",
                            "type": "uint256"
                        }
                    ],
                    "internalType": "struct Account.Info",
                    "name": "accountInfo",
                    "type": "tuple"
                },
                {
                    "internalType": "bytes",
                    "name": "data",
                    "type": "bytes"
                }
            ],
            "name": "callFunction",
            "outputs": [],
            "stateMutability": "nonpayable",
            "type": "function"
        },
        {
            "inputs": [
                {
                    "internalType": "uint256",
                    "name": "_amount",
                    "type": "uint256"
                }
            ],
            "name": "ethWithdraw",
            "outputs": [],
            "stateMutability": "nonpayable",
            "type": "function"
        },
        {
            "inputs": [
                {
                    "internalType": "uint256",
                    "name": "_loanAmount",
                    "type": "uint256"
                },
                {
                    "internalType": "bytes",
                    "name": "_params",
                    "type": "bytes"
                },
                {
                    "internalType": "uint8",
                    "name": "_trigger",
                    "type": "uint8"
                }
            ],
            "name": "flashloan_4247",
            "outputs": [],
            "stateMutability": "nonpayable",
            "type": "function"
        },
        {
            "inputs": [
                {
                    "internalType": "uint256",
                    "name": "_amount",
                    "type": "uint256"
                }
            ],
            "name": "withdraw",
            "outputs": [],
            "stateMutability": "nonpayable",
            "type": "function"
        },
        {
            "stateMutability": "payable",
            "type": "receive"
        }
    ],
    "bytecode": "0x60c0604052731e0447b19bb6ecfdae1e4ae1694b0c3659614e4e6000806101000a81548173ffffffffffffffffffffffffffffffffffffffff021916908373ffffffffffffffffffffffffffffffffffffffff16021790555073fed77055b40d63dcf17ab250ffd6948fbff57b82600160006101000a81548173ffffffffffffffffffffffffffffffffffffffff021916908373ffffffffffffffffffffffffffffffffffffffff16021790555073e592427a0aece92de3edee1f18e0157c05861564600260006101000a81548173ffffffffffffffffffffffffffffffffffffffff021916908373ffffffffffffffffffffffffffffffffffffffff16021790555073a5407eae9ba41422680e2e00537571bcc53efbfd600360006101000a81548173ffffffffffffffffffffffffffffffffffffffff021916908373ffffffffffffffffffffffffffffffffffffffff16021790555073a0b86991c6218b36c1d19d4a2e9eb0ce3606eb48600460006101000a81548173ffffffffffffffffffffffffffffffffffffffff021916908373ffffffffffffffffffffffffffffffffffffffff1602179055507357ab1ec28d129707052df4df418d58a2d46d5f51600560006101000a81548173ffffffffffffffffffffffffffffffffffffffff021916908373ffffffffffffffffffffffffffffffffffffffff160217905550604051620028123803806200281283398181016040528101906200022691906200070d565b73c02aaa39b223fe8d0a0e5c4f27ead9083c756cc273ffffffffffffffffffffffffffffffffffffffff1663095ea7b360008054906101000a900473ffffffffffffffffffffffffffffffffffffffff167fffffffffffffffffffffffffffffffffffffffffffffffffffffffffffffffff6040518363ffffffff1660e01b8152600401620002b792919062000787565b602060405180830381600087803b158015620002d257600080fd5b505af1158015620002e7573d6000803e3d6000fd5b505050506040513d601f19601f820116820180604052508101906200030d919062000739565b5073c02aaa39b223fe8d0a0e5c4f27ead9083c756cc273ffffffffffffffffffffffffffffffffffffffff1663095ea7b3600260009054906101000a900473ffffffffffffffffffffffffffffffffffffffff167fffffffffffffffffffffffffffffffffffffffffffffffffffffffffffffffff6040518363ffffffff1660e01b8152600401620003a192919062000787565b602060405180830381600087803b158015620003bc57600080fd5b505af1158015620003d1573d6000803e3d6000fd5b505050506040513d601f19601f82011682018060405250810190620003f7919062000739565b50600560009054906101000a900473ffffffffffffffffffffffffffffffffffffffff1673ffffffffffffffffffffffffffffffffffffffff1663095ea7b3600160009054906101000a900473ffffffffffffffffffffffffffffffffffffffff167fffffffffffffffffffffffffffffffffffffffffffffffffffffffffffffffff6040518363ffffffff1660e01b81526004016200049992919062000787565b602060405180830381600087803b158015620004b457600080fd5b505af1158015620004c9573d6000803e3d6000fd5b505050506040513d601f19601f82011682018060405250810190620004ef919062000739565b50600460009054906101000a900473ffffffffffffffffffffffffffffffffffffffff1673ffffffffffffffffffffffffffffffffffffffff1663095ea7b3600360009054906101000a900473ffffffffffffffffffffffffffffffffffffffff167fffffffffffffffffffffffffffffffffffffffffffffffffffffffffffffffff6040518363ffffffff1660e01b81526004016200059192919062000787565b602060405180830381600087803b158015620005ac57600080fd5b505af1158015620005c1573d6000803e3d6000fd5b505050506040513d601f19601f82011682018060405250810190620005e7919062000739565b503373ffffffffffffffffffffffffffffffffffffffff1660808173ffffffffffffffffffffffffffffffffffffffff1660601b815250508073ffffffffffffffffffffffffffffffffffffffff1660a08173ffffffffffffffffffffffffffffffffffffffff1660601b815250506000341115620006d85773c02aaa39b223fe8d0a0e5c4f27ead9083c756cc273ffffffffffffffffffffffffffffffffffffffff1663d0e30db0346040518263ffffffff1660e01b81526004016000604051808303818588803b158015620006bd57600080fd5b505af1158015620006d2573d6000803e3d6000fd5b50505050505b5062000832565b600081519050620006f081620007fe565b92915050565b600081519050620007078162000818565b92915050565b6000602082840312156200072057600080fd5b60006200073084828501620006df565b91505092915050565b6000602082840312156200074c57600080fd5b60006200075c84828501620006f6565b91505092915050565b6200077081620007b4565b82525050565b6200078181620007f4565b82525050565b60006040820190506200079e600083018562000765565b620007ad602083018462000776565b9392505050565b6000620007c182620007d4565b9050919050565b60008115159050919050565b600073ffffffffffffffffffffffffffffffffffffffff82169050919050565b6000819050919050565b6200080981620007b4565b81146200081557600080fd5b50565b6200082381620007c8565b81146200082f57600080fd5b50565b60805160601c60a05160601c611f986200087a600039806102565280610aa35250806106fa52806107a5528061083b52806108d0528061098252806110065250611f986000f3fe60806040526004361061004e5760003560e01c80630958e33f1461005a5780632e1a7d4d1461008357806335ec1a75146100ac5780636dbf2fa0146100d55780638b4187131461010557610055565b3661005557005b600080fd5b34801561006657600080fd5b50610081600480360381019061007c9190611605565b61012e565b005b34801561008f57600080fd5b506100aa60048036038101906100a591906115b3565b6107a3565b005b3480156100b857600080fd5b506100d360048036038101906100ce91906115b3565b6108ce565b005b6100ef60048036038101906100ea9190611410565b61097e565b6040516100fc9190611b41565b60405180910390f35b34801561011157600080fd5b5061012c6004803603810190610127919061147c565b610a9c565b005b600073c02aaa39b223fe8d0a0e5c4f27ead9083c756cc273ffffffffffffffffffffffffffffffffffffffff166370a08231306040518263ffffffff1660e01b815260040161017d9190611ac6565b60206040518083038186803b15801561019557600080fd5b505afa1580156101a9573d6000803e3d6000fd5b505050506040513d601f19601f820116820180604052508101906101cd91906115dc565b1480156101dd575060018160ff16145b1561024f5760005b6003811015610249574173ffffffffffffffffffffffffffffffffffffffff166108fc66015af5c940d2aa9081150290604051600060405180830381858888f1935050505015801561023b573d6000803e3d6000fd5b5080806001019150506101e5565b5061079e565b60005a90507f000000000000000000000000000000000000000000000000000000000000000073ffffffffffffffffffffffffffffffffffffffff163373ffffffffffffffffffffffffffffffffffffffff1614806102f9575060008054906101000a900473ffffffffffffffffffffffffffffffffffffffff1673ffffffffffffffffffffffffffffffffffffffff163373ffffffffffffffffffffffffffffffffffffffff16145b61030257600080fd5b6060600367ffffffffffffffff8111801561031c57600080fd5b5060405190808252806020026020018201604052801561035657816020015b6103436110b1565b81526020019060019003908161033b5790505b5090506040518061010001604052806001600881111561037257fe5b81526020016000815260200160405180608001604052806000151581526020016000600181111561039f57fe5b8152602001600060018111156103b157fe5b815260200188815250815260200160008152602001600081526020013073ffffffffffffffffffffffffffffffffffffffff16815260200160008152602001604051806020016040528060008152508152508160008151811061041057fe5b602002602001018190525060405180610100016040528060088081111561043357fe5b81526020016000815260200160405180608001604052806000151581526020016000600181111561046057fe5b81526020016000600181111561047257fe5b81526020016000815250815260200160008152602001600081526020013073ffffffffffffffffffffffffffffffffffffffff1681526020016000815260200185815250816001815181106104c357fe5b6020026020010181905250604051806101000160405280600060088111156104e757fe5b81526020016000815260200160405180608001604052806001151581526020016000600181111561051457fe5b81526020016000600181111561052657fe5b815260200160028901815250815260200160008152602001600081526020013073ffffffffffffffffffffffffffffffffffffffff16815260200160008152602001604051806020016040528060008152508152508160028151811061058857fe5b60200260200101819052506060600167ffffffffffffffff811180156105ad57600080fd5b506040519080825280602002602001820160405280156105e757816020015b6105d461111d565b8152602001906001900390816105cc5790505b50905060405180604001604052803073ffffffffffffffffffffffffffffffffffffffff16815260200160018152508160008151811061062357fe5b602002602001018190525060008054906101000a900473ffffffffffffffffffffffffffffffffffffffff1673ffffffffffffffffffffffffffffffffffffffff1663a67a6a4582846040518363ffffffff1660e01b8152600401610689929190611b0a565b600060405180830381600087803b1580156106a357600080fd5b505af11580156106b7573d6000803e3d6000fd5b505050506000803690506010025a8561520801030190506d4946c0e9f43f4dee607b0ef1fa1c73ffffffffffffffffffffffffffffffffffffffff1663079d229f7f000000000000000000000000000000000000000000000000000000000000000061a3db61374a85018161072857fe5b046040518363ffffffff1660e01b8152600401610746929190611ae1565b602060405180830381600087803b15801561076057600080fd5b505af1158015610774573d6000803e3d6000fd5b505050506040513d601f19601f8201168201806040525081019061079891906115dc565b50505050505b505050565b7f000000000000000000000000000000000000000000000000000000000000000073ffffffffffffffffffffffffffffffffffffffff163373ffffffffffffffffffffffffffffffffffffffff16146107fb57600080fd5b600081141561080957600080fd5b73c02aaa39b223fe8d0a0e5c4f27ead9083c756cc273ffffffffffffffffffffffffffffffffffffffff1663a9059cbb7f0000000000000000000000000000000000000000000000000000000000000000836040518363ffffffff1660e01b8152600401610878929190611ae1565b602060405180830381600087803b15801561089257600080fd5b505af11580156108a6573d6000803e3d6000fd5b505050506040513d601f19601f820116820180604052508101906108ca919061158a565b5050565b7f000000000000000000000000000000000000000000000000000000000000000073ffffffffffffffffffffffffffffffffffffffff163373ffffffffffffffffffffffffffffffffffffffff161461092657600080fd5b600081141561093457600080fd5b3373ffffffffffffffffffffffffffffffffffffffff166108fc829081150290604051600060405180830381858888f1935050505015801561097a573d6000803e3d6000fd5b5050565b60607f000000000000000000000000000000000000000000000000000000000000000073ffffffffffffffffffffffffffffffffffffffff163373ffffffffffffffffffffffffffffffffffffffff16146109d857600080fd5b600073ffffffffffffffffffffffffffffffffffffffff168573ffffffffffffffffffffffffffffffffffffffff161415610a1257600080fd5b600060608673ffffffffffffffffffffffffffffffffffffffff16868686604051610a3e929190611aad565b60006040518083038185875af1925050503d8060008114610a7b576040519150601f19603f3d011682016040523d82523d6000602084013e610a80565b606091505b509150915081610a8f57600080fd5b8092505050949350505050565b60005a90507f000000000000000000000000000000000000000000000000000000000000000073ffffffffffffffffffffffffffffffffffffffff163373ffffffffffffffffffffffffffffffffffffffff161480610b46575060008054906101000a900473ffffffffffffffffffffffffffffffffffffffff1673ffffffffffffffffffffffffffffffffffffffff163373ffffffffffffffffffffffffffffffffffffffff16145b610b4f57600080fd5b606080600080600086806020019051810190610b6b91906114e3565b94509450945094509450600260009054906101000a900473ffffffffffffffffffffffffffffffffffffffff1673ffffffffffffffffffffffffffffffffffffffff1663db3e219860405180610100016040528073c02aaa39b223fe8d0a0e5c4f27ead9083c756cc273ffffffffffffffffffffffffffffffffffffffff168152602001600460009054906101000a900473ffffffffffffffffffffffffffffffffffffffff1673ffffffffffffffffffffffffffffffffffffffff168152602001610bb862ffffff1681526020013073ffffffffffffffffffffffffffffffffffffffff168152602001670de0b6b3a76400008152602001858152602001868152602001600073ffffffffffffffffffffffffffffffffffffffff168152506040518263ffffffff1660e01b8152600401610ca79190611ba8565b602060405180830381600087803b158015610cc157600080fd5b505af1158015610cd5573d6000803e3d6000fd5b505050506040513d601f19601f82011682018060405250810190610cf991906115dc565b50600360009054906101000a900473ffffffffffffffffffffffffffffffffffffffff1673ffffffffffffffffffffffffffffffffffffffff1663a6417ed660016003600460009054906101000a900473ffffffffffffffffffffffffffffffffffffffff1673ffffffffffffffffffffffffffffffffffffffff166370a08231306040518263ffffffff1660e01b8152600401610d979190611ac6565b60206040518083038186803b158015610daf57600080fd5b505afa158015610dc3573d6000803e3d6000fd5b505050506040513d601f19601f82011682018060405250810190610de791906115dc565b60016040518563ffffffff1660e01b8152600401610e089493929190611b63565b600060405180830381600087803b158015610e2257600080fd5b505af1158015610e36573d6000803e3d6000fd5b5050505060005b8551811015610f0857600160009054906101000a900473ffffffffffffffffffffffffffffffffffffffff1673ffffffffffffffffffffffffffffffffffffffff1663e220a811878381518110610e9057fe5b6020026020010151878481518110610ea457fe5b60200260200101516040518363ffffffff1660e01b8152600401610ec9929190611ae1565b600060405180830381600087803b158015610ee357600080fd5b505af1158015610ef7573d6000803e3d6000fd5b505050508080600101915050610e3d565b5073c02aaa39b223fe8d0a0e5c4f27ead9083c756cc273ffffffffffffffffffffffffffffffffffffffff1663d0e30db08247036040518263ffffffff1660e01b81526004016000604051808303818588803b158015610f6757600080fd5b505af1158015610f7b573d6000803e3d6000fd5b50505050504173ffffffffffffffffffffffffffffffffffffffff166108fc829081150290604051600060405180830381858888f19350505050158015610fc6573d6000803e3d6000fd5b506000803690506010025a8861520801030190506d4946c0e9f43f4dee607b0ef1fa1c73ffffffffffffffffffffffffffffffffffffffff1663079d229f7f000000000000000000000000000000000000000000000000000000000000000061a3db61374a85018161103457fe5b046040518363ffffffff1660e01b8152600401611052929190611ae1565b602060405180830381600087803b15801561106c57600080fd5b505af1158015611080573d6000803e3d6000fd5b505050506040513d601f19601f820116820180604052508101906110a491906115dc565b5050505050505050505050565b604051806101000160405280600060088111156110ca57fe5b8152602001600081526020016110de61114d565b81526020016000815260200160008152602001600073ffffffffffffffffffffffffffffffffffffffff16815260200160008152602001606081525090565b6040518060400160405280600073ffffffffffffffffffffffffffffffffffffffff168152602001600081525090565b60405180608001604052806000151581526020016000600181111561116e57fe5b81526020016000600181111561118057fe5b8152602001600081525090565b60008135905061119c81611eef565b92915050565b6000815190506111b181611eef565b92915050565b6000813590506111c681611f06565b92915050565b600082601f8301126111dd57600080fd5b81516111f06111eb82611bf1565b611bc4565b9150818183526020840193506020810190508385602084028201111561121557600080fd5b60005b83811015611245578161122b88826111a2565b845260208401935060208301925050600181019050611218565b5050505092915050565b600082601f83011261126057600080fd5b815161127361126e82611c19565b611bc4565b9150818183526020840193506020810190508385602084028201111561129857600080fd5b60005b838110156112c857816112ae88826113e6565b84526020840193506020830192505060018101905061129b565b5050505092915050565b6000815190506112e181611f1d565b92915050565b60008083601f8401126112f957600080fd5b8235905067ffffffffffffffff81111561131257600080fd5b60208301915083600182028301111561132a57600080fd5b9250929050565b600082601f83011261134257600080fd5b813561135561135082611c41565b611bc4565b9150808252602083016020830185838301111561137157600080fd5b61137c838284611e75565b50505092915050565b60006040828403121561139757600080fd5b6113a16040611bc4565b905060006113b18482850161118d565b60008301525060206113c5848285016113d1565b60208301525092915050565b6000813590506113e081611f34565b92915050565b6000815190506113f581611f34565b92915050565b60008135905061140a81611f4b565b92915050565b6000806000806060858703121561142657600080fd5b6000611434878288016111b7565b9450506020611445878288016113d1565b935050604085013567ffffffffffffffff81111561146257600080fd5b61146e878288016112e7565b925092505092959194509250565b60008060006080848603121561149157600080fd5b600061149f8682870161118d565b93505060206114b086828701611385565b925050606084013567ffffffffffffffff8111156114cd57600080fd5b6114d986828701611331565b9150509250925092565b600080600080600060a086880312156114fb57600080fd5b600086015167ffffffffffffffff81111561151557600080fd5b611521888289016111cc565b955050602086015167ffffffffffffffff81111561153e57600080fd5b61154a8882890161124f565b945050604061155b888289016113e6565b935050606061156c888289016113e6565b925050608061157d888289016113e6565b9150509295509295909350565b60006020828403121561159c57600080fd5b60006115aa848285016112d2565b91505092915050565b6000602082840312156115c557600080fd5b60006115d3848285016113d1565b91505092915050565b6000602082840312156115ee57600080fd5b60006115fc848285016113e6565b91505092915050565b60008060006060848603121561161a57600080fd5b6000611628868287016113d1565b935050602084013567ffffffffffffffff81111561164557600080fd5b61165186828701611331565b9250506040611662868287016113fb565b9150509250925092565b60006116788383611898565b905092915050565b600061168c8383611a42565b60408301905092915050565b6116a181611dd3565b82525050565b6116b081611d17565b82525050565b6116bf81611d17565b82525050565b60006116d082611c8d565b6116da8185611cc8565b9350836020820285016116ec85611c6d565b8060005b858110156117285784840389528151611709858261166c565b945061171483611cae565b925060208a019950506001810190506116f0565b50829750879550505050505092915050565b600061174582611c98565b61174f8185611cd9565b935061175a83611c7d565b8060005b8381101561178b5781516117728882611680565b975061177d83611cbb565b92505060018101905061175e565b5085935050505092915050565b6117a181611d3b565b82525050565b60006117b38385611d0c565b93506117c0838584611e75565b82840190509392505050565b60006117d782611ca3565b6117e18185611cea565b93506117f1818560208601611e84565b6117fa81611eb7565b840191505092915050565b600061181082611ca3565b61181a8185611cfb565b935061182a818560208601611e84565b61183381611eb7565b840191505092915050565b61184781611de5565b82525050565b61185681611df7565b82525050565b61186581611e09565b82525050565b61187481611e1b565b82525050565b61188381611e2d565b82525050565b61189281611e3f565b82525050565b6000610160830160008301516118b1600086018261183e565b5060208301516118c46020860182611a8f565b5060408301516118d7604086018261194b565b5060608301516118ea60c0860182611a8f565b5060808301516118fd60e0860182611a8f565b5060a08301516119116101008601826116a7565b5060c0830151611925610120860182611a8f565b5060e083015184820361014086015261193e82826117cc565b9150508091505092915050565b6080820160008201516119616000850182611798565b506020820151611974602085018261184d565b506040820151611987604085018261185c565b50606082015161199a6060850182611a8f565b50505050565b610100820160008201516119b760008501826116a7565b5060208201516119ca60208501826116a7565b5060408201516119dd6040850182611a80565b5060608201516119f060608501826116a7565b506080820151611a036080850182611a8f565b5060a0820151611a1660a0850182611a8f565b5060c0820151611a2960c0850182611a8f565b5060e0820151611a3c60e0850182611a71565b50505050565b604082016000820151611a5860008501826116a7565b506020820151611a6b6020850182611a8f565b50505050565b611a7a81611d8d565b82525050565b611a8981611dad565b82525050565b611a9881611dbc565b82525050565b611aa781611dbc565b82525050565b6000611aba8284866117a7565b91508190509392505050565b6000602082019050611adb6000830184611698565b92915050565b6000604082019050611af660008301856116b6565b611b036020830184611a9e565b9392505050565b60006040820190508181036000830152611b24818561173a565b90508181036020830152611b3881846116c5565b90509392505050565b60006020820190508181036000830152611b5b8184611805565b905092915050565b6000608082019050611b78600083018761186b565b611b856020830186611889565b611b926040830185611a9e565b611b9f606083018461187a565b95945050505050565b600061010082019050611bbe60008301846119a0565b92915050565b6000604051905081810181811067ffffffffffffffff82111715611be757600080fd5b8060405250919050565b600067ffffffffffffffff821115611c0857600080fd5b602082029050602081019050919050565b600067ffffffffffffffff821115611c3057600080fd5b602082029050602081019050919050565b600067ffffffffffffffff821115611c5857600080fd5b601f19601f8301169050602081019050919050565b6000819050602082019050919050565b6000819050602082019050919050565b600081519050919050565b600081519050919050565b600081519050919050565b6000602082019050919050565b6000602082019050919050565b600082825260208201905092915050565b600082825260208201905092915050565b600082825260208201905092915050565b600082825260208201905092915050565b600081905092915050565b6000611d2282611d8d565b9050919050565b6000611d3482611d8d565b9050919050565b60008115159050919050565b6000819050611d5582611ec8565b919050565b6000819050611d6882611ed5565b919050565b6000819050611d7b82611ee2565b919050565b600081600f0b9050919050565b600073ffffffffffffffffffffffffffffffffffffffff82169050919050565b600062ffffff82169050919050565b6000819050919050565b600060ff82169050919050565b6000611dde82611e51565b9050919050565b6000611df082611d47565b9050919050565b6000611e0282611d5a565b9050919050565b6000611e1482611d6d565b9050919050565b6000611e2682611d80565b9050919050565b6000611e3882611dbc565b9050919050565b6000611e4a82611d80565b9050919050565b6000611e5c82611e63565b9050919050565b6000611e6e82611d8d565b9050919050565b82818337600083830152505050565b60005b83811015611ea2578082015181840152602081019050611e87565b83811115611eb1576000848401525b50505050565b6000601f19601f8301169050919050565b60098110611ed257fe5b50565b60028110611edf57fe5b50565b60028110611eec57fe5b50565b611ef881611d17565b8114611f0357600080fd5b50565b611f0f81611d29565b8114611f1a57600080fd5b50565b611f2681611d3b565b8114611f3157600080fd5b50565b611f3d81611dbc565b8114611f4857600080fd5b50565b611f5481611dc6565b8114611f5f57600080fd5b5056fea264697066735822122080b051c2abddda1ffc444e97e168bcec7f351745a407dd33246e8e59ac392c0664736f6c634300060c0033",
    "linkReferences": {},
    "deployedLinkReferences": {}
}