{
	"_format": "hh-sol-artifact-1",
	"contractName": "sAssetsOracle",
	"sourceName": "contracts/sAssetsOracle.sol",
	"abi": [
		{
			"inputs": [],
			"name": "COLLATERAL",
			"outputs": [
				{
					"internalType": "bytes32",
					"name": "",
					"type": "bytes32"
				}
			],
			"stateMutability": "view",
			"type": "function"
		},
		{
			"inputs": [
				{
					"internalType": "address[]",
					"name": "_addresses",
					"type": "address[]"
				},
				{
					"internalType": "uint256[]",
					"name": "_loanIDs",
					"type": "uint256[]"
				},
				{
					"internalType": "address",
					"name": "_contractAddress",
					"type": "address"
				}
			],
			"name": "batchGetLoanInformation",
			"outputs": [
				{
					"internalType": "uint256[]",
					"name": "",
					"type": "uint256[]"
				},
				{
					"internalType": "uint256[]",
					"name": "",
					"type": "uint256[]"
				}
			],
			"stateMutability": "view",
			"type": "function"
		},
		{
			"inputs": [
				{
					"internalType": "address[]",
					"name": "_addresses",
					"type": "address[]"
				},
				{
					"internalType": "uint256[]",
					"name": "_loanIDs",
					"type": "uint256[]"
				},
				{
					"internalType": "address",
					"name": "_contractAddress",
					"type": "address"
				}
			],
			"name": "batchGetLoanInformationSETH",
			"outputs": [
				{
					"internalType": "uint256[]",
					"name": "",
					"type": "uint256[]"
				},
				{
					"internalType": "uint256[]",
					"name": "",
					"type": "uint256[]"
				}
			],
			"stateMutability": "view",
			"type": "function"
		},
		{
			"inputs": [
				{
					"internalType": "address[]",
					"name": "_addresses",
					"type": "address[]"
				},
				{
					"internalType": "address",
					"name": "_contractAddress",
					"type": "address"
				},
				{
					"internalType": "uint256",
					"name": "_loanLength",
					"type": "uint256"
				}
			],
			"name": "batchOpenLoanIDsByAccount",
			"outputs": [
				{
					"internalType": "address[]",
					"name": "",
					"type": "address[]"
				},
				{
					"internalType": "uint256[]",
					"name": "",
					"type": "uint256[]"
				}
			],
			"stateMutability": "view",
			"type": "function"
		},
		{
			"inputs": [
				{
					"internalType": "bytes32",
					"name": "sourceCurrencyKey",
					"type": "bytes32"
				},
				{
					"internalType": "uint256",
					"name": "amountToLiquidate",
					"type": "uint256"
				},
				{
					"internalType": "bytes32",
					"name": "destinationCurrencyKey",
					"type": "bytes32"
				}
			],
			"name": "getCollateralAmountSUSD",
			"outputs": [
				{
					"internalType": "uint256",
					"name": "",
					"type": "uint256"
				}
			],
			"stateMutability": "view",
			"type": "function"
		},
		{
			"inputs": [],
			"name": "liquidationPenalty",
			"outputs": [
				{
					"internalType": "uint256",
					"name": "",
					"type": "uint256"
				}
			],
			"stateMutability": "view",
			"type": "function"
		}
	],
	"bytecode": "0x608060405273d69b189020ef614796578afe4d10378c5e7e11386000806101000a81548173ffffffffffffffffffffffffffffffffffffffff021916908373ffffffffffffffffffffffffffffffffffffffff1602179055506012600a0a600155600a6001548161006c57fe5b0460025534801561007c57600080fd5b506114de8061008c6000396000f3fe608060405234801561001057600080fd5b50600436106100625760003560e01c8063078fd4651461006757806323f5589a1461009857806324bbab8b146100b657806379d0bafb146100d45780638f45521114610105578063f6efb79314610135575b600080fd5b610081600480360381019061007c9190610dfb565b610166565b60405161008f92919061120a565b60405180910390f35b6100a061042a565b6040516100ad919061132a565b60405180910390f35b6100be610430565b6040516100cb9190611278565b60405180910390f35b6100ee60048036038101906100e99190610e67565b610454565b6040516100fc929190611241565b60405180910390f35b61011f600480360381019061011a9190610f31565b610728565b60405161012c919061132a565b60405180910390f35b61014f600480360381019061014a9190610e67565b610813565b60405161015d929190611241565b60405180910390f35b60608060608367ffffffffffffffff8111801561018257600080fd5b506040519080825280602002602001820160405280156101b15781602001602082028036833780820191505090505b50905060608467ffffffffffffffff811180156101cd57600080fd5b506040519080825280602002602001820160405280156101fc5781602001602082028036833780820191505090505b5090506000805b898990508110156104175760608873ffffffffffffffffffffffffffffffffffffffff16632f2bf15b8c8c8581811061023857fe5b905060200201602081019061024d9190610d20565b6040518263ffffffff1660e01b815260040161026991906111c6565b60006040518083038186803b15801561028157600080fd5b505afa158015610295573d6000803e3d6000fd5b505050506040513d6000823e3d601f19601f820116820180604052508101906102be9190610ef0565b9050600081511415610354578a8a838181106102d657fe5b90506020020160208101906102eb9190610d20565b8584815181106102f757fe5b602002602001019073ffffffffffffffffffffffffffffffffffffffff16908173ffffffffffffffffffffffffffffffffffffffff1681525050600084848151811061033f57fe5b60200260200101818152505082806001019350505b60005b8151811015610408578b8b8481811061036c57fe5b90506020020160208101906103819190610d20565b86858151811061038d57fe5b602002602001019073ffffffffffffffffffffffffffffffffffffffff16908173ffffffffffffffffffffffffffffffffffffffff16815250508181815181106103d357fe5b60200260200101518585815181106103e757fe5b60200260200101818152505083806001019450508080600101915050610357565b50508080600101915050610203565b5082829450945050505094509492505050565b60025481565b7f455448000000000000000000000000000000000000000000000000000000000081565b60608060608787905067ffffffffffffffff8111801561047357600080fd5b506040519080825280602002602001820160405280156104a25781602001602082028036833780820191505090505b50905060608888905067ffffffffffffffff811180156104c157600080fd5b506040519080825280602002602001820160405280156104f05781602001602082028036833780820191505090505b50905060005b898990508110156107155760008060008873ffffffffffffffffffffffffffffffffffffffff1663a1c515868e8e8781811061052e57fe5b90506020020160208101906105439190610d20565b8d8d8881811061054f57fe5b905060200201356040518363ffffffff1660e01b81526004016105739291906111e1565b6101006040518083038186803b15801561058c57600080fd5b505afa1580156105a0573d6000803e3d6000fd5b505050506040513d601f19601f820116820180604052508101906105c49190610d49565b90919293949596509091929350909192509091505080935081945082955050505060008973ffffffffffffffffffffffffffffffffffffffff166327cff2e58f8f8881811061060f57fe5b90506020020160208101906106249190610d20565b8e8e8981811061063057fe5b905060200201356040518363ffffffff1660e01b81526004016106549291906111e1565b60206040518083038186803b15801561066c57600080fd5b505afa158015610680573d6000803e3d6000fd5b505050506040513d601f19601f820116820180604052508101906106a49190610f80565b905060006106bb8284610a5890919063ffffffff16565b90508084018887815181106106cc57fe5b6020026020010181815250506106eb8186610aad90919063ffffffff16565b8787815181106106f757fe5b602002602001018181525050505050505080806001019150506104f6565b5081819350935050509550959350505050565b60008060008054906101000a900473ffffffffffffffffffffffffffffffffffffffff1673ffffffffffffffffffffffffffffffffffffffff1663654a60ac8686866040518463ffffffff1660e01b815260040161078893929190611293565b60206040518083038186803b1580156107a057600080fd5b505afa1580156107b4573d6000803e3d6000fd5b505050506040513d601f19601f820116820180604052508101906107d89190610f80565b905060006108056107f6600254600154610a5890919063ffffffff16565b83610b0390919063ffffffff16565b905080925050509392505050565b60608060608787905067ffffffffffffffff8111801561083257600080fd5b506040519080825280602002602001820160405280156108615781602001602082028036833780820191505090505b50905060608888905067ffffffffffffffff8111801561088057600080fd5b506040519080825280602002602001820160405280156108af5781602001602082028036833780820191505090505b50905060005b89899050811015610a45576000808773ffffffffffffffffffffffffffffffffffffffff1663a1c515868d8d868181106108eb57fe5b90506020020160208101906109009190610d20565b8c8c8781811061090c57fe5b905060200201356040518363ffffffff1660e01b81526004016109309291906111e1565b6101006040518083038186803b15801561094957600080fd5b505afa15801561095d573d6000803e3d6000fd5b505050506040513d601f19601f820116820180604052508101906109819190610d49565b9091929394959650909192939495509091929350909192509091505080925081935050508082018584815181106109b457fe5b602002602001018181525050610a1e7f73555344000000000000000000000000000000000000000000000000000000008685815181106109f057fe5b60200260200101517f4554480000000000000000000000000000000000000000000000000000000000610728565b848481518110610a2a57fe5b602002602001018181525050505080806001019150506108b5565b5081819350935050509550959350505050565b600080828401905083811015610aa3576040517f08c379a0000000000000000000000000000000000000000000000000000000008152600401610a9a906112ca565b60405180910390fd5b8091505092915050565b600082821115610af2576040517f08c379a0000000000000000000000000000000000000000000000000000000008152600401610ae9906112ea565b60405180910390fd5b600082840390508091505092915050565b6000601260ff16600a0a610b208385610b3090919063ffffffff16565b81610b2757fe5b04905092915050565b600080831415610b435760009050610b9a565b6000828402905082848281610b5457fe5b0414610b95576040517f08c379a0000000000000000000000000000000000000000000000000000000008152600401610b8c9061130a565b60405180910390fd5b809150505b92915050565b600081359050610baf81611463565b92915050565b600081519050610bc481611463565b92915050565b60008083601f840112610bdc57600080fd5b8235905067ffffffffffffffff811115610bf557600080fd5b602083019150836020820283011115610c0d57600080fd5b9250929050565b60008083601f840112610c2657600080fd5b8235905067ffffffffffffffff811115610c3f57600080fd5b602083019150836020820283011115610c5757600080fd5b9250929050565b600082601f830112610c6f57600080fd5b8151610c82610c7d82611372565b611345565b91508181835260208401935060208101905083856020840282011115610ca757600080fd5b60005b83811015610cd75781610cbd8882610d0b565b845260208401935060208301925050600181019050610caa565b5050505092915050565b600081359050610cf08161147a565b92915050565b600081359050610d0581611491565b92915050565b600081519050610d1a81611491565b92915050565b600060208284031215610d3257600080fd5b6000610d4084828501610ba0565b91505092915050565b600080600080600080600080610100898b031215610d6657600080fd5b6000610d748b828c01610bb5565b9850506020610d858b828c01610d0b565b9750506040610d968b828c01610d0b565b9650506060610da78b828c01610d0b565b9550506080610db88b828c01610d0b565b94505060a0610dc98b828c01610d0b565b93505060c0610dda8b828c01610d0b565b92505060e0610deb8b828c01610d0b565b9150509295985092959890939650565b60008060008060608587031215610e1157600080fd5b600085013567ffffffffffffffff811115610e2b57600080fd5b610e3787828801610bca565b94509450506020610e4a87828801610ba0565b9250506040610e5b87828801610cf6565b91505092959194509250565b600080600080600060608688031215610e7f57600080fd5b600086013567ffffffffffffffff811115610e9957600080fd5b610ea588828901610bca565b9550955050602086013567ffffffffffffffff811115610ec457600080fd5b610ed088828901610c14565b93509350506040610ee388828901610ba0565b9150509295509295909350565b600060208284031215610f0257600080fd5b600082015167ffffffffffffffff811115610f1c57600080fd5b610f2884828501610c5e565b91505092915050565b600080600060608486031215610f4657600080fd5b6000610f5486828701610ce1565b9350506020610f6586828701610cf6565b9250506040610f7686828701610ce1565b9150509250925092565b600060208284031215610f9257600080fd5b6000610fa084828501610d0b565b91505092915050565b6000610fb58383610fd9565b60208301905092915050565b6000610fcd83836111a8565b60208301905092915050565b610fe28161141d565b82525050565b610ff18161141d565b82525050565b6000611002826113ba565b61100c81856113ea565b93506110178361139a565b8060005b8381101561104857815161102f8882610fa9565b975061103a836113d0565b92505060018101905061101b565b5085935050505092915050565b6000611060826113c5565b61106a81856113fb565b9350611075836113aa565b8060005b838110156110a657815161108d8882610fc1565b9750611098836113dd565b925050600181019050611079565b5085935050505092915050565b6110bc8161142f565b82525050565b60006110cf601b8361140c565b91507f536166654d6174683a206164646974696f6e206f766572666c6f7700000000006000830152602082019050919050565b600061110f601e8361140c565b91507f536166654d6174683a207375627472616374696f6e206f766572666c6f7700006000830152602082019050919050565b600061114f60218361140c565b91507f536166654d6174683a206d756c7469706c69636174696f6e206f766572666c6f60008301527f77000000000000000000000000000000000000000000000000000000000000006020830152604082019050919050565b6111b181611459565b82525050565b6111c081611459565b82525050565b60006020820190506111db6000830184610fe8565b92915050565b60006040820190506111f66000830185610fe8565b61120360208301846111b7565b9392505050565b600060408201905081810360008301526112248185610ff7565b905081810360208301526112388184611055565b90509392505050565b6000604082019050818103600083015261125b8185611055565b9050818103602083015261126f8184611055565b90509392505050565b600060208201905061128d60008301846110b3565b92915050565b60006060820190506112a860008301866110b3565b6112b560208301856111b7565b6112c260408301846110b3565b949350505050565b600060208201905081810360008301526112e3816110c2565b9050919050565b6000602082019050818103600083015261130381611102565b9050919050565b6000602082019050818103600083015261132381611142565b9050919050565b600060208201905061133f60008301846111b7565b92915050565b6000604051905081810181811067ffffffffffffffff8211171561136857600080fd5b8060405250919050565b600067ffffffffffffffff82111561138957600080fd5b602082029050602081019050919050565b6000819050602082019050919050565b6000819050602082019050919050565b600081519050919050565b600081519050919050565b6000602082019050919050565b6000602082019050919050565b600082825260208201905092915050565b600082825260208201905092915050565b600082825260208201905092915050565b600061142882611439565b9050919050565b6000819050919050565b600073ffffffffffffffffffffffffffffffffffffffff82169050919050565b6000819050919050565b61146c8161141d565b811461147757600080fd5b50565b6114838161142f565b811461148e57600080fd5b50565b61149a81611459565b81146114a557600080fd5b5056fea2646970667358221220109bac1146f9359dec663d70e6b68cca3d2925b7da44305b0e2bb3bea60ee8de64736f6c634300060c0033",
	"linkReferences": {},
	"deployedLinkReferences": {}
}